:100000000C946C000C9458070C9431070C94CE0699
:100010000C946B060C94FA050C9494000C949400C8
:100020000C9494000C9494000C9494000C94940000
:100030000C9494000C9494000C9494000C949400F0
:100040000C94FE040C9494000C94C8050C94A20526
:100050000C9494000C9494000C9494000C949400D0
:100060000C9494000C9494000000000024002700DD
:100070002A0000000000250028002B0000000008D6
:10008000000201000003040700000000000000005F
:1000900000000000230026002900000102030405DF
:1000A000060700010203040500010203040504041D
:1000B0000404040404040202020202020303030310
:1000C00003030102040810204080010204081020EC
:1000D000010204081020DE0F11241FBECFEFD8E06C
:1000E000DEBFCDBF22E0A4E3B1E001C01D92A13785
:1000F000B207E1F711E0A0E0B1E0ECE3FAE202C000
:1001000005900D92A433B107D9F710E0CCE6D0E00A
:1001100004C02197FE010E94FB11CB36D107C9F71D
:100120000E940D0B0C941C150C9400008E3008F0EE
:100130008E508770806480937C0080917A00806408
:1001400080937A0080917A0086FDFCCF80917800C0
:100150002091790090E0922B08953FB7F894809118
:100160008B0190918C01A0918D01B0918E0126B5EB
:10017000A89B05C02F3F19F00196A11DB11D3FBFDF
:10018000BA2FA92F982F8827820F911DA11DB11D6D
:10019000BC01CD0142E0660F771F881F991F4A9569
:1001A000D1F70895CF92DF92EF92FF920F931F93B2
:1001B000CF93DF936C017A018B01C0E0D0E0CE15C4
:1001C000DF0581F0D8016D918D01D601ED91FC9193
:1001D0000190F081E02DC6010995892B11F021963F
:1001E000EECF7E01C701DF91CF911F910F91FF905C
:1001F000EF90DF90CF900895089580E090E008950B
:10020000FC01538D448D252F30E0842F90E0821B1C
:10021000930B541710F0CF96089501970895FC01A1
:10022000918D828D981761F0828DDF01A80FB11D2D
:100230005D968C91928D9F5F9F73928F90E0089551
:100240008FEF9FEF0895FC01918D828D981731F00B
:10025000828DE80FF11D858D90E008958FEF9FEF5F
:100260000895FC01918D228D892F90E0805C9F4F35
:10027000821B91098F739927089584EC91E00E9465
:10028000310121E0892B09F420E0822F0895FC013F
:10029000848DDF01A80FB11DA35ABF4F2C91848D0F
:1002A00090E001968F739927848FA689B7892C9344
:1002B000A089B1898C91837080648C93938D848D97
:1002C000981306C00288F389E02D80818F7D80839A
:1002D0000895EF92FF920F931F93CF93DF93EC015A
:1002E00081E0888F9B8D8C8D981305C0E889F989F2
:1002F000808185FD26C0F62E0B8D10E00F5F1F4F0D
:100300000F731127E02E8C8DE8120CC00FB607FC7E
:10031000FACFE889F989808185FFF5CFCE010E9467
:100320004701F1CF8B8DFE01E80FF11DE35AFF4F1E
:10033000F0829FB7F8940B8FEA89FB8980818062F5
:100340000AC09FB7F894EE89FF896083E889F9892C
:1003500080818370806480839FBF81E090E0DF9123
:10036000CF911F910F91FF90EF900895CF93DF935E
:10037000EC01888D8823C9F0EA89FB89808185FD9D
:1003800005C0A889B9898C9186FD0FC00FB607FCFE
:10039000F5CF808185FFF2CFA889B9898C9185FF3F
:1003A000EDCFCE010E944701E7CFDF91CF910895B5
:1003B00080E090E0892B29F00E943D0181110C948E
:1003C000000008958F929F92AF92BF92CF92DF92DA
:1003D000EF92FF9280918201909183010196909318
:1003E0008301809382018130910559F40E94AD0010
:1003F00060934001709341018093420190934301C7
:10040000A6C00B9709F0A3C020E030E040E85FE30E
:1004100060917401709175018091760190917701DE
:100420000E9402124B015C0160937401709375018C
:10043000809376019093770120E030E040E85FE31D
:1004400060915B0170915C0180915D0190915E0112
:100450000E9402126B017C0160935B0170935C014E
:1004600080935D0190935E0120E030E048E052E42B
:10047000C501B4010E94561081110BC081E0809328
:100480005A01109274011092750110927601109227
:10049000770120E030E040E052E4C701B6010E945D
:1004A000561081110BC081E080936F0110925B01A7
:1004B00010925C0110925D0110925E010E94AD00ED
:1004C000C0904001D0904101E0904201F090430182
:1004D0006C197D098E099F090E945B1020E030E0B5
:1004E00040E251E40E946E120E94E7120E945B10EB
:1004F0006B017C0120E030E0A9010E9456108823A6
:10050000B9F020E030E94CE054E4C701B6010E94A4
:10051000BC1020E034E244E759E40E946E129B01D3
:10052000AC0160E070E080E792E40E946E1203C0CC
:1005300060E070E0CB0160935601709357018093A7
:100540005801909359011092830110928201FF90FB
:10055000EF90DF90CF90BF90AF909F908F900895D5
:10056000CF92DF92EF92FF92809180019091810172
:10057000019690938101809380018130910559F417
:100580000E94AD0060933C0170933D0180933E0159
:1005900090933F0175C00B9709F072C020E030E0E6
:1005A00040E85FE36091440170914501809146010C
:1005B000909147010E9402126B017C0120E030E023
:1005C0004EEB53E40E945610882349F0C092440138
:1005D000D0924501E0924601F092470108C0109286
:1005E00044011092450110924601109247010E9469
:1005F000AD00C0903C01D0903D01E0903E01F090F4
:100600003F016C197D098E099F090E945B1020E053
:1006100030E040E251E40E946E120E94E7120E9414
:100620005B106B017C0120E030E0A9010E945610B4
:100630008823B9F020E030E94CE054E4C701B6016A
:100640000E94BC1020E034E244E759E40E946E129C
:100650009B01AC0160E070E080E792E40E946E12C2
:1006600003C060E070E0CB016093520170935301CE
:100670008093540190935501109281011092800152
:10068000FF90EF90DF90CF90089520916701309117
:1006900068014091690150916A016091380170913F
:1006A000390180913A0190913B010E9402126093BE
:1006B00038017093390180933A0190933B01209166
:1006C0006B0130916C0140916D0150916E01609110
:1006D00034017091350180913601909137010E946B
:1006E0000212609334017093350180933601909328
:1006F0003701089580917C0190917D01A0917E0148
:10070000B0917F0180936B0190936C01A0936D0178
:10071000B0936E018091780190917901A0917A0156
:10072000B0917B018093670190936801A093690168
:10073000B0936A010895CF92DF92EF92FF92C0903A
:100740007001D0907101E0907201F09073012091DE
:100750005601309157014091580150915901C701FC
:10076000B6010E94011260937C0170937D01809319
:100770007E0190937F01209152013091530140916D
:10078000540150915501C701B6010E9401126093B6
:1007900078017093790180937A0190937B01FF90A7
:1007A000EF90DF90CF900895CF92DF92EF92FF927B
:1007B00020E030E048E251E460917C0170917D01DD
:1007C00080917E0190917F010E94BC106B017C01A1
:1007D00023E333E343EB5EE360916B0170916C01C3
:1007E00080916D0190916E010E94BC109B01AC0143
:1007F000C701B6010E9402126B017C0125E83BEEA5
:1008000041E15FE3609134017091350180913601DF
:10081000909137010E94BC109B01AC01C701B60149
:100820000E940212609363017093640180936501DA
:100830009093660120E030E048E351E46091780154
:100840007091790180917A0190917B010E94BC1096
:100850006B017C0123E333E343EB5EE360916701CB
:10086000709168018091690190916A010E94BC10A9
:100870009B01AC01C701B6010E9402126B017C0111
:1008800028EB3EE145E05FE360913801709139016A
:1008900080913A0190913B010E94BC109B01AC01F8
:1008A000C701B6010E94021260935F01709360015C
:1008B0008093610190936201FF90EF90DF90CF9061
:1008C00008950E9407151F93CF93DF93182FEB0114
:1008D00061E00E94D10A209711F460E004C0CF3F8C
:1008E000D10539F461E0812FDF91CF911F910C94F4
:1008F000F709E12FF0E0E458FF4FE491E330F9F01D
:1009000048F4E130B9F0E230A1F584B5806284BDED
:10091000C8BD34C0E730E9F0E83019F1E43049F5FA
:1009200080918000806280938000D0938B00C09380
:100930008A0024C084B5806884BDC7BD1FC0809173
:100940008000806880938000D0938900C0938800E5
:1009500015C08091B00080688093B000C093B30050
:100960000DC08091B00080628093B000C093B4004D
:1009700005C0C038D1050CF0B5CFAFCFDF91CF9116
:100980001F91089560E0809161020E94F70960E084
:10099000809162020E94F70980916302893059F4C4
:1009A000909168029A3039F480E991E0909389003F
:1009B0008093880004C06FEF70E00E94630460E0E1
:1009C000809166020E94F70960E0809167020E94B0
:1009D000F70980916302893059F4809168028A3066
:1009E00039F480E991E090938B0080938A00089518
:1009F0006FEF70E0809168020C9463041F920F9275
:100A00000FB60F9211242F933F938F939F93AF9321
:100A1000BF938091870190918801A0918901B09145
:100A20008A013091860123E0230F2D3720F40196AF
:100A3000A11DB11D05C026E8230F0296A11DB11D01
:100A4000209386018093870190938801A093890168
:100A5000B0938A0180918B0190918C01A0918D01BE
:100A6000B0918E010196A11DB11D80938B019093D1
:100A70008C01A0938D01B0938E01BF91AF919F9196
:100A80008F913F912F910F900FBE0F901F9018954F
:100A9000CF93DF93EC0188819981009711F00E9438
:100AA000B813198218821D821C821B821A82DF9160
:100AB000CF9108950F931F93CF93DF93EC0188811B
:100AC0009981009729F02A813B812617370788F4FE
:100AD0008B016F5F7F4F0E944114009761F09983F3
:100AE00088831B830A832C813D81232B11F4FC0115
:100AF000108281E001C080E0DF91CF911F910F91C2
:100B00000895EF92FF920F931F93CF93DF93EC0121
:100B10007B018A01BA010E945A05811104C0CE01ED
:100B20000E94480507C01D830C83B7018881998105
:100B30000E941515CE01DF91CF911F910F91FF906B
:100B4000EF9008951F920F920FB60F9211242F93DA
:100B50003F934F935F936F937F938F939F93AF9345
:100B6000BF93EF93FF9384EC91E00E944701FF91C4
:100B7000EF91BF91AF919F918F917F916F915F9115
:100B80004F913F912F910F900FBE0F901F9018958E
:100B90001F920F920FB60F9211242F938F939F9352
:100BA000EF93FF93E091D401F091D5018081E09122
:100BB000DA01F091DB0182FD12C090818091DD01AC
:100BC0008F5F8F732091DE01821751F0E091DD017C
:100BD000F0E0EC53FE4F958F8093DD0101C08081E2
:100BE000FF91EF919F918F912F910F900FBE0F90DA
:100BF0001F9018951F920F920FB60F9211242F93EA
:100C00003F934F935F936F937F938F939F93AF9394
:100C1000BF93CF93EF93FF9329B1C091930180913C
:100C2000C1019091BE01322F309593238223892BED
:100C300090916D00C227C923C82320939301CC2330
:100C4000C1F1C0FF05C0E0919401F09195010995B3
:100C5000C1FF05C0E0919601F09197010995C2FF8F
:100C600005C0E0919801F09199010995C3FF05C075
:100C7000E0919A01F0919B010995C4FF05C0E091B4
:100C80009C01F0919D010995C5FF05C0E0919E0171
:100C9000F0919F010995C6FF05C0E091A001F09178
:100CA000A1010995C7FF05C0E091A201F091A30140
:100CB0000995FF91EF91CF91BF91AF919F918F9146
:100CC0007F916F915F914F913F912F910F900FBE48
:100CD0000F901F9018951F920F920FB60F9211242C
:100CE0002F933F934F935F936F937F938F939F9334
:100CF000AF93BF93CF93EF93FF9326B1C091A4011D
:100D00008091C2019091BF01322F309593238223AD
:100D1000892B90916C00C227C923C8232093A4017A
:100D2000CC2351F1C0FF05C0E091A501F091A601CF
:100D30000995C1FF05C0E091A701F091A8010995AF
:100D4000C2FF05C0E091A901F091AA010995C3FF76
:100D500005C0E091AB01F091AC010995C4FF05C05D
:100D6000E091AD01F091AE010995C5FF05C0E0919C
:100D7000AF01F091B0010995FF91EF91CF91BF9133
:100D8000AF919F918F917F916F915F914F913F9123
:100D90002F910F900FBE0F901F9018951F920F92DA
:100DA0000FB60F9211242F933F934F935F936F933E
:100DB0007F938F939F93AF93BF93CF93EF93FF93C3
:100DC00023B1C091B1018091C3019091C001322F34
:100DD000309593238223892B90916B00C227C923DE
:100DE000C8232093B101CC2351F1C0FF05C0E0918D
:100DF000B201F091B3010995C1FF05C0E091B401C2
:100E0000F091B5010995C2FF05C0E091B601F091DE
:100E1000B7010995C3FF05C0E091B801F091B90190
:100E20000995C4FF05C0E091BA01F091BB01099595
:100E3000C5FF05C0E091BC01F091BD010995FF918E
:100E4000EF91CF91BF91AF919F918F917F916F91D2
:100E50005F914F913F912F910F900FBE0F901F9078
:100E600018951F920F920FB60F9211242F933F9354
:100E70004F935F936F937F938F939F93AF93BF93A2
:100E8000EF93FF93E0919101F09192010995FF9109
:100E9000EF91BF91AF919F918F917F916F915F91F2
:100EA0004F913F912F910F900FBE0F901F9018956B
:100EB0001F920F920FB60F9211242F933F934F93CF
:100EC0005F936F937F938F939F93AF93BF93EF93B2
:100ED000FF93E0918F01F09190010995FF91EF91BF
:100EE000BF91AF919F918F917F916F915F914F9142
:100EF0003F912F910F900FBE0F901F901895E82FE4
:100F0000EF7787FD05C08EEF8E0F823008F47CC02E
:100F10008E2F90E0FC01EE53FF4F2491FC01E2552F
:100F2000FF4F3491323031F44091C301422B409352
:100F3000C3010FC0333031F44091C201422B4093C2
:100F4000C20107C0343029F44091C101422B4093C3
:100F5000C101FC01E656FF4FA4913230C1F4B0E06C
:100F6000AA0FBB1FAE54BE4F6D937C93E4E9F0E033
:100F7000A591B4918C918093B1018BE690E0909310
:100F80006C0280936B0280916800816033C03330C3
:100F9000C1F4B0E0AA0FBB1FAB55BE4F6D937C935D
:100FA000E6E9F0E0A591B4918C918093A4018CE6E0
:100FB00090E090936C0280936B0280916800826055
:100FC00019C03430C9F4B0E0AA0FBB1FAC56BE4FF5
:100FD0006D937C93E8E9F0E0A591B4918C918093B6
:100FE00093018DE690E090936C0280936B02809168
:100FF0006800846080936800A0916B02B0916C02DD
:10100000EC912E2B2C9308959FB7F894E23099F42D
:101010007093900160938F01E898809169008C7FB4
:101020008093690080916900836080936900E09AF1
:10103000E89A9FBF08957093920160939101E99897
:1010400080916900837F80936900809169008C6042
:1010500080936900E19AE99AECCF009769F0FC016E
:1010600001900020E9F73197AF01481B590BBC01F3
:1010700084EC91E00C94D20080E090E008952F92EF
:101080003F924F925F926F927F928F929F92AF9218
:10109000BF92CF92DF92EF92FF920F931F93CF9365
:1010A000DF93CDB7DEB7A4970FB6F894DEBF0FBEBF
:1010B000CDBF4B015C01F42E9B01AC010E941B13C0
:1010C000882319F087E291E027C024013501E894D4
:1010D00077F82FEF3FEF4FE75FE7C301B2010E94C0
:1010E0001B1381110DC02FEF3FEF4FE75FE7C301E7
:1010F000B2010E94561018161CF48BE291E00CC04D
:101100002FEF3FEF4FE75FE4C501B4010E941613D4
:1011100018162CF48FE291E00E942D08B8C02FEF32
:101120003FEF4FE75FECC501B4010E94561087FD09
:10113000F1CF20E030E0A901C501B4010E945610B2
:1011400087FF0BC06DE284EC91E00E9469013C01D5
:10115000B7FAB094B7F8B09402C0612C712C10E0CB
:1011600060E070E080E09FE3F11641F020E030E0C5
:1011700040E251E40E946E121F5FF6CFA501940178
:101180000E9402124B015C010E94E7126AA3C72E63
:10119000D82EE92E19A2262F372F482F592F8E012E
:1011A0000F5D1F4F0BA31CA39AE0292E312C412C5D
:1011B000512CCA01B901A20191010E94C511605DC3
:1011C000F80162938F01211531054105510589F719
:1011D000CF010E942D088301080F191FFF2009F479
:1011E00055C06AA17C2D8D2D9E2D0E945B109B0108
:1011F000AC01C501B4010E9401124B015C016EE219
:1012000084EC91E00E946901080F191F8AE0282EE2
:10121000312C412C512C20E030E040E251E4C5015A
:10122000B4010E94BC104B015C010E94E7129B01BB
:1012300040E050E019A2CBA0DCA0762E3AA3642EA9
:10124000E52ECA01B901A20191010E94C511605D9C
:10125000F60162936F01211531054105510589F7AA
:10126000CF010E942D08080F191F672D7AA1862D26
:101270009E2D0E945B109B01AC01C501B4010E9430
:1012800001124B015C01FA94F110C5CFC801A4967C
:101290000FB6F894DEBF0FBECDBFDF91CF911F9187
:1012A0000F91FF90EF90DF90CF90BF90AF909F9005
:1012B0008F907F906F905F904F903F902F90089508
:1012C000FC0180819181009711F00C94B81308956E
:1012D000EF92FF920F931F93CF93DF93EC01FB01EB
:1012E00004811581E080F180E114F104C9F0011559
:1012F0001105C9F08C819D81080F191FB801CE011D
:101300000E945A05882361F0288139818C819D8152
:10131000B701820F931F0E9415151D830C8303C014
:10132000CE010E944805CE01DF91CF911F910F9110
:10133000FF90EF9008950F931F93CF93DF93EC01ED
:101340000C811D810F5F1F4FB8010E945A05882331
:1013500069F0288139818C819D8163E271E0820F7F
:10136000931F0E9415151D830C8303C0CE010E949C
:101370004805CE01DF91CF911F910F910895EF9213
:10138000FF920F931F93CF93DF93CDB7DEB7629792
:101390000FB6F894DEBF0FBECDBF8C01CB01F801B4
:1013A0001182108213821282158214824AE09E01F9
:1013B0002F5F3F4F7901B9010E942110F701019081
:1013C0000020E9F73197AF014E195F09B701C80155
:1013D0000E94810562960FB6F894DEBF0FBECDBFA6
:1013E000DF91CF911F910F91FF90EF90089590E0C2
:1013F000FC01E458FF4F2491FC01EE53FF4F349160
:10140000FC01E255FF4FE491EE2309F43CC0222396
:1014100039F1233091F038F42130A9F0223001F570
:1014200084B58F7D12C0273091F02830A1F0243090
:10143000B9F4809180008F7D03C0809180008F7708
:10144000809380000DC084B58F7784BD09C08091E2
:10145000B0008F7703C08091B0008F7D8093B00083
:10146000F0E0EE0FFF1FEE58FF4FA591B4919FB72C
:10147000F894611104C08C913095382302C0EC912E
:101480003E2B3C939FBF08951F93CF93DF9397FF0D
:1014900005C091958195910911E001C010E0EC0122
:1014A000C13981E0D80714F0C0E9D1E0209163028E
:1014B000293049F4809168028A3029F4D093890058
:1014C000C09388000DC033E33C9FC0013D9F900D49
:1014D000112460E570E00E94B111822F0E94630424
:1014E000CD2B11F460E00AC0112339F060E0809147
:1014F00061020E94F70961E006C061E0809161022B
:101500000E94F70960E080916202DF91CF911F9104
:101510000C94F7091F93CF93DF9397FF05C0919524
:101520008195910911E001C010E0EC01C13981E021
:10153000D80714F0C0E9D1E080916302893049F402
:10154000809168028A3029F4D0938B00C0938A007E
:101550000EC023E32C9FC0012D9F900D112460E548
:1015600070E00E94B111809168020E946304CD2B4B
:1015700011F460E00AC0112339F060E08091660246
:101580000E94F70961E006C061E0809166020E9456
:10159000F70960E080916702DF91CF911F910C9471
:1015A000F709CF93DF9390E0FC01EE53FF4F2491B6
:1015B000FC01E255FF4F8491882361F190E0880F90
:1015C000991FFC01E859FF4FC591D491FC01EE58D9
:1015D000FF4FA591B491611109C09FB7F89488811C
:1015E000209582238883EC912E230BC0623061F416
:1015F0009FB7F8948881322F309583238883EC91AC
:101600002E2B2C939FBF06C08FB7F894E8812E2B0A
:1016100028838FBFDF91CF910895CF93DF93CDB70C
:10162000DEB7AA970FB6F894DEBF0FBECDBF789491
:1016300084B5826084BD84B5816084BD85B58260D7
:1016400085BD85B5816085BD80916E008160809388
:101650006E001092810080918100826080938100F1
:101660008091810081608093810080918000816001
:10167000809380008091B10084608093B10080915C
:10168000B00081608093B00080917A008460809384
:101690007A0080917A00826080937A0080917A004B
:1016A000816080937A0080917A00806880937A00CC
:1016B0001092C10088E191E00E942D088BE191E039
:1016C0000E942D0810925A0110926F011092810110
:1016D00010928001109283011092820110924401B5
:1016E0001092450110924601109247011092740128
:1016F000109275011092760110927701E091D40159
:10170000F091D50182E08083E091D001F091D10188
:101710001082E091D201F091D30180E18083109298
:10172000DC01E091D801F091D90186E08083E0915D
:10173000D601F091D701808180618083E091D6014C
:10174000F091D701808188608083E091D601F0918B
:10175000D701808180688083E091D601F091D70124
:1017600080818F7D808362EE71E083E00E947F073D
:1017700060EB72E08BE00E947F0761E08091610284
:101780000E94D10A61E0809162020E94D10A61E068
:10179000809163020E94D10A60E0809164020E94FD
:1017A000D10A60E0809165020E94D10A61E08091D7
:1017B00066020E94D10A61E0809167020E94D10A0C
:1017C00061E0809168020E94D10A60E08091690224
:1017D0000E94D10A60E080916A020E94D10A809141
:1017E0006302893081F4809168028A3061F480EA72
:1017F0008093800081E18093810080E991E0909363
:101800008700809386008E010B5D1F4F812C912CE9
:1018100080EFA82E82E4B82E412C512C9CE8692E32
:1018200092E4792E8EE00E949600BC01990F880BFD
:10183000990B0E945D102DE430E04BED52E40E94C4
:1018400002129B01AC0161E171EA85E296E40E941B
:101850006E1220E030E040E051E40E9401126B0182
:101860007C0120E030E040E751E40E945610181659
:10187000C4F420E030E048EC51E4C701B6010E9416
:10188000561018169CF420E030E04CE052E4C701FA
:10189000B6010E945610181674F460E070E0CB0197
:1018A0000EC060E070E080E89FE309C060E070E097
:1018B00080E090E404C060E070E080E490E40E9486
:1018C000E01270935101609350018FE00E949600E6
:1018D000BC01990F880B990B0E945D1029E532E934
:1018E00048EB52E40E9402129B01AC0168E978EED9
:1018F00084E296E40E946E1220E030E040E051E481
:101900000E9401126B017C0120E030E040E851E4CC
:101910000E9456101816C4F420E030E040ED51E467
:10192000C701B6010E94561018169CF420E030E062
:1019300048E152E4C701B6010E945610181674F42B
:1019400060E070E0CB010EC060E070E080E89FE3F3
:1019500009C060E070E080E090E404C060E070E006
:1019600080E490E40E94E01270934F0160934E0176
:1019700083E10E949600BC01990F880B990B0E948D
:101980005D102EE33FE642EF52E40E9402129B01FB
:10199000AC016AE574ED8FE296E40E946E1220E0DD
:1019A00030E040E051E40E94011220E030E040E3EA
:1019B00051E40E945610181624F460E070E0CB0148
:1019C00004C060E070E080E89FE30E94E012709342
:1019D0004D0160934C0180E10E949600BC01990F7B
:1019E000880B990B0E945D102DEC34E747EF50E413
:1019F0000E9402129B01AC0166EC7DE485E796E44F
:101A00000E946E1220E030E040E051E40E9401129A
:101A10006B017C0120E030E040EB51E40E94561065
:101A200018166CF520E030E048EF51E4C701B6012C
:101A30000E945610181644F520E030E048E252E4C7
:101A4000C701B6010E94561018161CF520E030E0C0
:101A500044E552E4C701B6010E9456101816F4F48A
:101A600020E030E040E852E4C701B6010E94561081
:101A70001816CCF460E070E080EE90E418C060E0EE
:101A800070E080E89FE313C060E070E080E090E4E5
:101A90000EC060E070E080E490E409C060E070E0B7
:101AA00080E890E404C060E070E080EA90E40E9486
:101AB000E0126B017C0170934B0160934A0181E15C
:101AC0000E949600BC01990F880B990B0E945D1033
:101AD00023EF36EB42EA52E40E9402129B01AC0172
:101AE0006BEF7CE883E296E40E946E1220E030E027
:101AF00040E051E40E94011220E030E040E351E474
:101B00000E94561087FD04C060E070E0CB0104C065
:101B100060E070E080E89FE30E94E012709349016A
:101B200060934801B601CE0101960E94BF09609101
:101B30004C0170914D01CE0107960E94BF09609142
:101B4000480170914901CE010D960E94BF09609134
:101B50004E0170914F01CE0143960E94BF096091E2
:101B6000500170915101CE0149960E94BF0918A2FF
:101B70001F8E1AA219A21CA21BA246E050E06EE121
:101B800071E0CE014F960E948105BE01675E7F4FD6
:101B9000CE014F960E9468090E949B09BE016D5EAE
:101BA0007F4F0E9468090E949B09BE01635F7F4FBF
:101BB0000E9468090E949B09BE01695F7F4F0E94D5
:101BC00068090E949B09BE016F5F7F4F0E946809F0
:101BD0001EA21DA218A61FA21AA619A68017910759
:101BE00071F0DC016D917C9111976115710539F0EF
:101BF00014964D915C911597C8010E948105CE0104
:101C00004F960E946009CE0149960E946009CE015C
:101C100043960E946009CE010D960E946009CE0194
:101C200007960E946009CE0101960E946009C801D2
:101C30000E94600984EC91E00E9431011816190697
:101C40001CF584EC91E00E940F01833791F03CF485
:101C50008136A1F08436C1F483E090E011C087376B
:101C600029F0883789F481E090E00AC084E090E0B0
:101C700007C0109285011092840106C082E090E0B6
:101C800090938501809384018091840190918501D6
:101C90008230910509F4AFC088F5009709F488C037
:101CA000019709F088C140927001509271016092D1
:101CB0007201709273010E949B030E94D4030E94E0
:101CC0007A030E94450360916301709164018091E1
:101CD0006501909166010E94E012CB010E948A0A80
:101CE00060915F017091600180916101909162014A
:101CF0000E94E012CB010E94440A5DC1833091052D
:101D000009F4F0C0049709F056C180E090E0A8EC17
:101D1000B2E48093700190937101A0937201B0932B
:101D200073010E949B030E94D4030E947A030E94C5
:101D300045038091630190916401A0916501B09188
:101D40006601BC01CD0190580E94E012CB010E94B7
:101D50008A0A80915F0190916001A0916101B09128
:101D60006201BC01CD0190580E94E012CB010E949B
:101D7000440A6091560170915701809158019091E9
:101D8000590142E00E943F0885E291E00E942D083F
:101D900060915201709153018091540190915501CD
:101DA00042E00E943F088BE191E00E942D0803C1B0
:101DB0001092830110928201109281011092800191
:101DC00010927C0110927D0110927E0110927F0191
:101DD000109278011092790110927A0110927B0191
:101DE0001092740110927501109276011092770191
:101DF0000E94C204E0C08092700190927101A09292
:101E00007201B09273010E949B030E94D4030E944E
:101E10007A030E9445038091630190916401A0912F
:101E20006501B0916601BC01CD0190580E94E0129D
:101E3000CB010E948A0A60915F01709160018091DC
:101E40006101909162010E94E012CB010E94440A5C
:101E500080916F01882309F4AEC010928301109223
:101E60008201109281011092800180917C019091F9
:101E70007D01A0917E01B0917F0180936B019093D1
:101E80006C01A0936D01B0936E01809178019091E7
:101E90007901A0917A01B0917B01809367019093C1
:101EA0006801A0936901B0936A01109263011092D6
:101EB0006401109265011092660110925F01109208
:101EC0006001109261011092620110925B01109208
:101ED0005C0110925D0110925E0110926F010E94F0
:101EE000C20465C08092700190927101A09272014B
:101EF000B09273010E949B030E94D4030E947A0354
:101F00000E944503609163017091640180916501B5
:101F1000909166010E94E012CB010E948A0A809192
:101F20005F0190916001A0916101B0916201BC01DB
:101F3000CD0190580E94E012CB010E94440A80918A
:101F40005A018823C1F110928301109282011092EC
:101F500081011092800180917C0190917D01A0917E
:101F60007E01B0917F0180936B0190936C01A093EF
:101F70006D01B0936E018091780190917901A091EB
:101F80007A01B0917B018093670190936801A093DF
:101F90006901B0936A011092740110927501109258
:101FA0007601109277010E94C20410925A01109299
:101FB0008501109284010E94D80134CCE4ECF1E058
:101FC0001382128288EE93E0A0E0B0E084839583D0
:101FD000A683B7838AE091E09183808385EC90E0CB
:101FE0009587848784EC90E09787868780EC90E0E3
:101FF000918B808B81EC90E0938B828B82EC90E0D4
:10200000958B848B86EC90E0978B868B118E128E4D
:10201000138E148EE1E6F2E082E0808384E0818317
:1020200089E0828386E083838EE0848387E08583F2
:1020300088E086838AE087838CE080878FE08187D1
:102040000895BB274A3031F4992322F4BDE29095DC
:1020500081959F4F0C942D10BB27FB015527AA2774
:10206000880F991FAA1FA41710F0A41B8395505125
:10207000B9F7A05DAA3308F0A95DA193009779F79D
:10208000B111B1931192CB010C944610DC01FC010B
:10209000672F71917723E1F7329704C07C916D939C
:1020A00070836291AE17BF07C8F308950E9498101D
:1020B00008F481E00895E89409C097FB3EF49095F8
:1020C0008095709561957F4F8F4F9F4F9923A9F011
:1020D000F92F96E9BB279395F695879577956795A0
:1020E000B795F111F8CFFAF4BB0F11F460FF1BC0E4
:1020F0006F5F7F4F8F4F9F4F16C0882311F096E977
:1021000011C0772321F09EE8872F762F05C0662324
:1021100071F096E8862F70E060E02AF09A95660FDD
:10212000771F881FDAF7880F9695879597F9089596
:10213000990F0008550FAA0BE0E8FEEF16161706D8
:10214000E807F907C0F012161306E407F50798F040
:10215000621B730B840B950B39F40A2661F0232B59
:10216000242B252B21F408950A2609F4A140A695D5
:102170008FEF811D811D08950E94CF100C94401196
:102180000E94321138F00E94391120F0952311F08D
:102190000C9429110C942F1111240C9474110E9489
:1021A000511170F3959FC1F3950F50E0551F629F39
:1021B000F001729FBB27F00DB11D639FAA27F00DA0
:1021C000B11DAA1F649F6627B00DA11D661F829FC7
:1021D0002227B00DA11D621F739FB00DA11D621FAC
:1021E000839FA00D611D221F749F3327A00D611DC9
:1021F000231F849F600D211D822F762F6A2F1124AB
:102200009F5750409AF0F1F088234AF0EE0FFF1FDD
:10221000BB1F661F771F881F91505040A9F79E3F34
:10222000510580F00C9429110C9474115F3FE4F374
:10223000983ED4F3869577956795B795F795E7958A
:102240009F5FC1F7FE2B880F911D9695879597F993
:10225000089597F99F6780E870E060E008959FEF28
:1022600080EC089500240A9416161706180609062D
:10227000089500240A9412161306140605060895FC
:10228000092E0394000C11F4882352F0BB0F40F484
:10229000BF2B11F460FF04C06F5F7F4F8F4F9F4FC4
:1022A000089557FD9058440F551F59F05F3F71F046
:1022B0004795880F97FB991F61F09F3F79F08795AD
:1022C0000895121613061406551FF2CF4695F1DF36
:1022D00008C0161617061806991FF1CF86957105C6
:1022E000610508940895E894BB2766277727CB01FA
:1022F00097F908952F923F924F925F926F927F923B
:102300008F929F92AF92BF92CF92DF92EF92FF9205
:102310000F931F93CF93DF93CDB7DEB7CA1BDB0BB1
:102320000FB6F894DEBF0FBECDBF09942A88398856
:1023300048885F846E847D848C849B84AA84B9845D
:10234000C884DF80EE80FD800C811B81AA81B98169
:10235000CE0FD11D0FB6F894DEBF0FBECDBFED017D
:10236000089597FB072E16F4009407D077FD09D047
:102370000E94E71107FC05D03EF4909581959F4F90
:102380000895709561957F4F0895A1E21A2EAA1BBA
:10239000BB1BFD010DC0AA1FBB1FEE1FFF1FA21715
:1023A000B307E407F50720F0A21BB30BE40BF50B12
:1023B000661F771F881F991F1A9469F7609570959B
:1023C000809590959B01AC01BD01CF010895AA1B9A
:1023D000BB1B51E107C0AA1FBB1FA617B70710F010
:1023E000A61BB70B881F991F5A95A9F78095909542
:1023F000BC01CD010895EE0FFF1F0590F491E02D73
:1024000009945058BB27AA270E9419120C94401116
:102410000E94321138F00E94391120F039F49F3FA8
:1024200019F426F40C942F110EF4E095E7FB0C94AC
:102430002911E92F0E94511158F3BA176207730747
:102440008407950720F079F4A6F50C9473110EF427
:10245000E0950B2EBA2FA02D0B01B90190010C01B4
:10246000CA01A0011124FF27591B99F0593F50F4CC
:10247000503E68F11A16F040A22F232F342F442724
:10248000585FF3CF469537952795A795F04053951C
:10249000C9F77EF41F16BA0B620B730B840BBAF0EC
:1024A0009150A1F0FF0FBB1F661F771F881FC2F757
:1024B0000EC0BA0F621F731F841F48F4879577956B
:1024C0006795B795F7959E3F08F0B0CF9395880F25
:1024D00008F09927EE0F9795879508950E9482122C
:1024E0000C9440110E94391158F00E94321140F0B2
:1024F00029F45F3F29F00C94291151110C947411A7
:102500000C942F110E94511168F39923B1F35523B4
:1025100091F3951B550BBB27AA27621773078407F6
:1025200038F09F5F5F4F220F331F441FAA1FA9F38C
:1025300035D00E2E3AF0E0E832D091505040E6957A
:10254000001CCAF72BD0FE2F29D0660F771F881FDB
:10255000BB1F261737074807AB07B0E809F0BB0BCE
:10256000802DBF01FF2793585F4F3AF09E3F5105E2
:1025700078F00C9429110C9474115F3FE4F3983EA9
:10258000D4F3869577956795B795F7959F5FC9F7CB
:10259000880F911D9695879597F90895E1E0660F4C
:1025A000771F881FBB1F621773078407BA0720F0C5
:1025B000621B730B840BBA0BEE1F88F7E09508952E
:1025C0000E94E7126894B1110C94741108950E944E
:1025D000591188F09F5798F0B92F9927B751B0F04B
:1025E000E1F0660F771F881F991F1AF0BA95C9F797
:1025F00014C0B13091F00E947311B1E008950C94B1
:102600007311672F782F8827B85F39F0B93FCCF363
:10261000869577956795B395D9F73EF49095809513
:10262000709561957F4F8F4F9F4F08950E9498102E
:1026300008F48FEF08950E949810880B990B089565
:102640000F931F93CF93DF938230910510F482E0B4
:1026500090E0E0916F02F091700220E030E0A0E0A5
:10266000B0E0309719F14081518102811381481700
:102670005907C8F08417950769F4109731F012963E
:102680000C93129713961C9327C000936F0210931C
:10269000700222C02115310519F04217530718F4B2
:1026A0009A01BD01EF01DF01F801DBCF21153105F2
:1026B000F9F0281B390B2430310580F48A819B8185
:1026C0006115710521F0FB019383828304C090930F
:1026D000700280936F02FE01329644C0FE01E20F49
:1026E000F31F8193919322503109398328833AC093
:1026F00020916D0230916E02232B41F42091020152
:102700003091030130936E0220936D0220910001FD
:10271000309101012115310541F42DB73EB74091AB
:10272000040150910501241B350BE0916D02F091DD
:102730006E02E217F307A0F42E1B3F0B2817390790
:1027400078F0AC014E5F5F4F2417350748F04E0F0D
:102750005F1F50936E0240936D028193919302C06C
:10276000E0E0F0E0CF01DF91CF911F910F9108954C
:10277000CF93DF93009709F481C0FC013297138255
:102780001282A0916F02B0917002109781F42081A3
:102790003181820F931F20916D0230916E022817B4
:1027A000390751F5F0936E02E0936D0267C0ED01B9
:1027B00020E030E0CE17DF0740F44A815B819E01C4
:1027C00041155105F1F0EA01F5CFD383C283408171
:1027D0005181840F951FC817D90759F488819981B1
:1027E000840F951F0296918380838A819B819383B6
:1027F00082832115310529F4F0937002E0936F0272
:102800003DC0E901FB83EA8349915991C40FD51F6B
:10281000EC17FD0761F480819181840F951F02966A
:10282000E90199838883828193819B838A83E0E095
:10283000F0E012968D919C911397009719F0FD018D
:10284000DC01F7CF8D919C9111979D012E5F3F4F39
:10285000820F931F20916D0230916E022817390765
:1028600069F4309729F41092700210926F0202C03E
:1028700013821282B0936E02A0936D02DF91CF910A
:102880000895A0E0B0E0E7E4F4E10C947E11EC01DF
:10289000009721F4CB010E942013B4C0FC01E60F85
:1028A000F71F9C0122503109E217F30708F4A8C072
:1028B000D9010D911C91119706171707B0F005303B
:1028C000110508F49BC0C80104978617970708F400
:1028D00095C002501109061B170B019311936D93BC
:1028E0007C93CF010E94B81389C05B01A01AB10A82
:1028F0004C01800E911EA0916F02B0917002612C6C
:10290000712CE12CF12C109709F446C08D919C910B
:102910001197A815B905B1F56C0142E0C40ED11CA0
:10292000CA14DB0478F14C018A189B08640142E068
:10293000C40ED11C1296BC9012971396AC91B5E0C0
:10294000CB16D10440F0B282A38391828082D90158
:102950006D937C9309C00E5F1F4F800F911FF9018B
:1029600091838083EB2DFA2FE114F10431F0D7012C
:102970001396FC93EE93129741C0F0937002E0938C
:102980006F023CC06816790608F43C017D0112967E
:102990000D90BC91A02DB7CF80916D0290916E02E9
:1029A00088169906E1F466167706C8F4809100014E
:1029B00090910101009741F48DB79EB740910401B9
:1029C00050910501841B950BE817F907C8F4F093A3
:1029D0006E02E0936D02F901718360830FC0CB0139
:1029E0000E9420137C01009759F0A801BE010E94AB
:1029F0000C15CE010E94B813C70104C0CE0102C05D
:102A000080E090E0CDB7DEB7EEE00C949A1181E063
:102A100090E0F8940C941C15FB01DC0102C00190BD
:102A20000D9241505040D8F70895FB01DC01019010
:0C2A30000D920020E1F70895F894FFCF0C
:102A3C00000071022000000000006901D2000001BA
:102A4C00B60131010F0123016869000D0A005344DE
:102A5C004154413A0020006E616E00696E66006F51
:042A6C00766600008A
:00000001FF
